{
  "_format": "hh-sol-artifact-1",
  "contractName": "MyEpicNFT",
  "sourceName": "contracts/MyEpicNFT.sol",
  "abi": [
    {
      "inputs": [],
      "stateMutability": "nonpayable",
      "type": "constructor"
    },
    {
      "anonymous": false,
      "inputs": [
        {
          "indexed": true,
          "internalType": "address",
          "name": "owner",
          "type": "address"
        },
        {
          "indexed": true,
          "internalType": "address",
          "name": "approved",
          "type": "address"
        },
        {
          "indexed": true,
          "internalType": "uint256",
          "name": "tokenId",
          "type": "uint256"
        }
      ],
      "name": "Approval",
      "type": "event"
    },
    {
      "anonymous": false,
      "inputs": [
        {
          "indexed": true,
          "internalType": "address",
          "name": "owner",
          "type": "address"
        },
        {
          "indexed": true,
          "internalType": "address",
          "name": "operator",
          "type": "address"
        },
        {
          "indexed": false,
          "internalType": "bool",
          "name": "approved",
          "type": "bool"
        }
      ],
      "name": "ApprovalForAll",
      "type": "event"
    },
    {
      "anonymous": false,
      "inputs": [
        {
          "indexed": false,
          "internalType": "address",
          "name": "sender",
          "type": "address"
        },
        {
          "indexed": false,
          "internalType": "uint256",
          "name": "tokenId",
          "type": "uint256"
        }
      ],
      "name": "NewEpicNFTMinted",
      "type": "event"
    },
    {
      "anonymous": false,
      "inputs": [
        {
          "indexed": true,
          "internalType": "address",
          "name": "from",
          "type": "address"
        },
        {
          "indexed": true,
          "internalType": "address",
          "name": "to",
          "type": "address"
        },
        {
          "indexed": true,
          "internalType": "uint256",
          "name": "tokenId",
          "type": "uint256"
        }
      ],
      "name": "Transfer",
      "type": "event"
    },
    {
      "inputs": [
        {
          "internalType": "address",
          "name": "to",
          "type": "address"
        },
        {
          "internalType": "uint256",
          "name": "tokenId",
          "type": "uint256"
        }
      ],
      "name": "approve",
      "outputs": [],
      "stateMutability": "nonpayable",
      "type": "function"
    },
    {
      "inputs": [
        {
          "internalType": "address",
          "name": "owner",
          "type": "address"
        }
      ],
      "name": "balanceOf",
      "outputs": [
        {
          "internalType": "uint256",
          "name": "",
          "type": "uint256"
        }
      ],
      "stateMutability": "view",
      "type": "function"
    },
    {
      "inputs": [
        {
          "internalType": "string",
          "name": "input",
          "type": "string"
        }
      ],
      "name": "generateColor",
      "outputs": [
        {
          "internalType": "string",
          "name": "",
          "type": "string"
        }
      ],
      "stateMutability": "view",
      "type": "function"
    },
    {
      "inputs": [
        {
          "internalType": "string",
          "name": "input",
          "type": "string"
        }
      ],
      "name": "generateSVGColors",
      "outputs": [
        {
          "internalType": "string[]",
          "name": "",
          "type": "string[]"
        }
      ],
      "stateMutability": "view",
      "type": "function"
    },
    {
      "inputs": [
        {
          "internalType": "uint256",
          "name": "tokenId",
          "type": "uint256"
        }
      ],
      "name": "getApproved",
      "outputs": [
        {
          "internalType": "address",
          "name": "",
          "type": "address"
        }
      ],
      "stateMutability": "view",
      "type": "function"
    },
    {
      "inputs": [
        {
          "internalType": "address",
          "name": "sender",
          "type": "address"
        }
      ],
      "name": "getOwnerToken",
      "outputs": [
        {
          "internalType": "uint256",
          "name": "",
          "type": "uint256"
        }
      ],
      "stateMutability": "view",
      "type": "function"
    },
    {
      "inputs": [],
      "name": "getTotalNFTsMintedSoFar",
      "outputs": [
        {
          "internalType": "uint256",
          "name": "",
          "type": "uint256"
        }
      ],
      "stateMutability": "view",
      "type": "function"
    },
    {
      "inputs": [
        {
          "internalType": "address",
          "name": "owner",
          "type": "address"
        },
        {
          "internalType": "address",
          "name": "operator",
          "type": "address"
        }
      ],
      "name": "isApprovedForAll",
      "outputs": [
        {
          "internalType": "bool",
          "name": "",
          "type": "bool"
        }
      ],
      "stateMutability": "view",
      "type": "function"
    },
    {
      "inputs": [
        {
          "internalType": "address",
          "name": "sender",
          "type": "address"
        }
      ],
      "name": "isOwner",
      "outputs": [
        {
          "internalType": "bool",
          "name": "",
          "type": "bool"
        }
      ],
      "stateMutability": "view",
      "type": "function"
    },
    {
      "inputs": [],
      "name": "makeAnEpicNFT",
      "outputs": [],
      "stateMutability": "nonpayable",
      "type": "function"
    },
    {
      "inputs": [],
      "name": "name",
      "outputs": [
        {
          "internalType": "string",
          "name": "",
          "type": "string"
        }
      ],
      "stateMutability": "view",
      "type": "function"
    },
    {
      "inputs": [
        {
          "internalType": "address",
          "name": "",
          "type": "address"
        }
      ],
      "name": "ownerAddresses",
      "outputs": [
        {
          "internalType": "bool",
          "name": "",
          "type": "bool"
        }
      ],
      "stateMutability": "view",
      "type": "function"
    },
    {
      "inputs": [
        {
          "internalType": "uint256",
          "name": "tokenId",
          "type": "uint256"
        }
      ],
      "name": "ownerOf",
      "outputs": [
        {
          "internalType": "address",
          "name": "",
          "type": "address"
        }
      ],
      "stateMutability": "view",
      "type": "function"
    },
    {
      "inputs": [
        {
          "internalType": "address",
          "name": "",
          "type": "address"
        }
      ],
      "name": "ownerTokenId",
      "outputs": [
        {
          "internalType": "uint256",
          "name": "",
          "type": "uint256"
        }
      ],
      "stateMutability": "view",
      "type": "function"
    },
    {
      "inputs": [
        {
          "internalType": "string",
          "name": "input",
          "type": "string"
        }
      ],
      "name": "pickRandomByte",
      "outputs": [
        {
          "internalType": "string",
          "name": "",
          "type": "string"
        }
      ],
      "stateMutability": "view",
      "type": "function"
    },
    {
      "inputs": [
        {
          "internalType": "address",
          "name": "from",
          "type": "address"
        },
        {
          "internalType": "address",
          "name": "to",
          "type": "address"
        },
        {
          "internalType": "uint256",
          "name": "tokenId",
          "type": "uint256"
        }
      ],
      "name": "safeTransferFrom",
      "outputs": [],
      "stateMutability": "nonpayable",
      "type": "function"
    },
    {
      "inputs": [
        {
          "internalType": "address",
          "name": "from",
          "type": "address"
        },
        {
          "internalType": "address",
          "name": "to",
          "type": "address"
        },
        {
          "internalType": "uint256",
          "name": "tokenId",
          "type": "uint256"
        },
        {
          "internalType": "bytes",
          "name": "data",
          "type": "bytes"
        }
      ],
      "name": "safeTransferFrom",
      "outputs": [],
      "stateMutability": "nonpayable",
      "type": "function"
    },
    {
      "inputs": [
        {
          "internalType": "address",
          "name": "operator",
          "type": "address"
        },
        {
          "internalType": "bool",
          "name": "approved",
          "type": "bool"
        }
      ],
      "name": "setApprovalForAll",
      "outputs": [],
      "stateMutability": "nonpayable",
      "type": "function"
    },
    {
      "inputs": [
        {
          "internalType": "bytes4",
          "name": "interfaceId",
          "type": "bytes4"
        }
      ],
      "name": "supportsInterface",
      "outputs": [
        {
          "internalType": "bool",
          "name": "",
          "type": "bool"
        }
      ],
      "stateMutability": "view",
      "type": "function"
    },
    {
      "inputs": [],
      "name": "symbol",
      "outputs": [
        {
          "internalType": "string",
          "name": "",
          "type": "string"
        }
      ],
      "stateMutability": "view",
      "type": "function"
    },
    {
      "inputs": [
        {
          "internalType": "uint256",
          "name": "tokenId",
          "type": "uint256"
        }
      ],
      "name": "tokenURI",
      "outputs": [
        {
          "internalType": "string",
          "name": "",
          "type": "string"
        }
      ],
      "stateMutability": "view",
      "type": "function"
    },
    {
      "inputs": [
        {
          "internalType": "address",
          "name": "from",
          "type": "address"
        },
        {
          "internalType": "address",
          "name": "to",
          "type": "address"
        },
        {
          "internalType": "uint256",
          "name": "tokenId",
          "type": "uint256"
        }
      ],
      "name": "transferFrom",
      "outputs": [],
      "stateMutability": "nonpayable",
      "type": "function"
    }
  ],
  "bytecode": "0x60806040526040518061020001604052806040518060400160405280600181526020017f300000000000000000000000000000000000000000000000000000000000000081525081526020016040518060400160405280600181526020017f310000000000000000000000000000000000000000000000000000000000000081525081526020016040518060400160405280600181526020017f320000000000000000000000000000000000000000000000000000000000000081525081526020016040518060400160405280600181526020017f330000000000000000000000000000000000000000000000000000000000000081525081526020016040518060400160405280600181526020017f340000000000000000000000000000000000000000000000000000000000000081525081526020016040518060400160405280600181526020017f350000000000000000000000000000000000000000000000000000000000000081525081526020016040518060400160405280600181526020017f360000000000000000000000000000000000000000000000000000000000000081525081526020016040518060400160405280600181526020017f370000000000000000000000000000000000000000000000000000000000000081525081526020016040518060400160405280600181526020017f380000000000000000000000000000000000000000000000000000000000000081525081526020016040518060400160405280600181526020017f390000000000000000000000000000000000000000000000000000000000000081525081526020016040518060400160405280600181526020017f410000000000000000000000000000000000000000000000000000000000000081525081526020016040518060400160405280600181526020017f420000000000000000000000000000000000000000000000000000000000000081525081526020016040518060400160405280600181526020017f430000000000000000000000000000000000000000000000000000000000000081525081526020016040518060400160405280600181526020017f440000000000000000000000000000000000000000000000000000000000000081525081526020016040518060400160405280600181526020017f450000000000000000000000000000000000000000000000000000000000000081525081526020016040518060400160405280600181526020017f46000000000000000000000000000000000000000000000000000000000000008152508152506008906010620003d092919062000580565b50348015620003de57600080fd5b506040518060400160405280601081526020017f5368696e79436861726d616e64657273000000000000000000000000000000008152506040518060400160405280601081526020017f5368696e79436861726d616e6465727300000000000000000000000000000000815250816000908051906020019062000463929190620005e7565b5080600190805190602001906200047c929190620005e7565b505050620004ae604051806060016040528060298152602001620067e460299139620004b460201b620016fd1760201c565b62000832565b6200055481604051602401620004cb919062000746565b6040516020818303038152906040527f41304fac000000000000000000000000000000000000000000000000000000007bffffffffffffffffffffffffffffffffffffffffffffffffffffffff19166020820180517bffffffffffffffffffffffffffffffffffffffffffffffffffffffff83818316178352505050506200055760201b60201c565b50565b60008151905060006a636f6e736f6c652e6c6f679050602083016000808483855afa5050505050565b828054828255906000526020600020908101928215620005d4579160200282015b82811115620005d3578251829080519060200190620005c2929190620005e7565b5091602001919060010190620005a1565b5b509050620005e3919062000678565b5090565b828054620005f590620007bc565b90600052602060002090601f01602090048101928262000619576000855562000665565b82601f106200063457805160ff191683800117855562000665565b8280016001018555821562000665579182015b828111156200066457825182559160200191906001019062000647565b5b509050620006749190620006a0565b5090565b5b808211156200069c5760008181620006929190620006bf565b5060010162000679565b5090565b5b80821115620006bb576000816000905550600101620006a1565b5090565b508054620006cd90620007bc565b6000825580601f10620006e1575062000702565b601f016020900490600052602060002090810190620007019190620006a0565b5b50565b600062000712826200076a565b6200071e818562000775565b93506200073081856020860162000786565b6200073b8162000821565b840191505092915050565b6000602082019050818103600083015262000762818462000705565b905092915050565b600081519050919050565b600082825260208201905092915050565b60005b83811015620007a657808201518184015260208101905062000789565b83811115620007b6576000848401525b50505050565b60006002820490506001821680620007d557607f821691505b60208210811415620007ec57620007eb620007f2565b5b50919050565b7f4e487b7100000000000000000000000000000000000000000000000000000000600052602260045260246000fd5b6000601f19601f8301169050919050565b615fa280620008426000396000f3fe608060405234801561001057600080fd5b50600436106101425760003560e01c806395d89b41116100b8578063c87b56dd1161007c578063c87b56dd146103ad578063de9d132f146103dd578063e386c141146103e7578063e86782e514610417578063e985e9c514610447578063fb73b0821461047757610142565b806395d89b41146102f7578063966c0574146103155780639bb1dc8d14610345578063a22cb46514610375578063b88d4fde1461039157610142565b806323b872dd1161010a57806323b872dd146101ff57806327329fea1461021b5780632f54bf6e1461024b57806342842e0e1461027b5780636352211e1461029757806370a08231146102c757610142565b806301ffc9a714610147578063060475901461017757806306fdde0314610195578063081812fc146101b3578063095ea7b3146101e3575b600080fd5b610161600480360381019061015c9190612e5c565b6104a7565b60405161016e919061373b565b60405180910390f35b61017f610589565b60405161018c9190613938565b60405180910390f35b61019d61059a565b6040516101aa9190613756565b60405180910390f35b6101cd60048036038101906101c89190612eef565b61062c565b6040516101da9190613689565b60405180910390f35b6101fd60048036038101906101f89190612e20565b610672565b005b61021960048036038101906102149190612d1a565b61078a565b005b61023560048036038101906102309190612cb5565b6107ea565b6040516102429190613938565b60405180910390f35b61026560048036038101906102609190612cb5565b610802565b604051610272919061373b565b60405180910390f35b61029560048036038101906102909190612d1a565b610858565b005b6102b160048036038101906102ac9190612eef565b610878565b6040516102be9190613689565b60405180910390f35b6102e160048036038101906102dc9190612cb5565b6108ff565b6040516102ee9190613938565b60405180910390f35b6102ff6109b7565b60405161030c9190613756565b60405180910390f35b61032f600480360381019061032a9190612cb5565b610a49565b60405161033c9190613938565b60405180910390f35b61035f600480360381019061035a9190612cb5565b610a92565b60405161036c919061373b565b60405180910390f35b61038f600480360381019061038a9190612de4565b610ab2565b005b6103ab60048036038101906103a69190612d69565b610ac8565b005b6103c760048036038101906103c29190612eef565b610b2a565b6040516103d49190613756565b60405180910390f35b6103e5610c3d565b005b61040160048036038101906103fc9190612eae565b610ef6565b60405161040e9190613756565b60405180910390f35b610431600480360381019061042c9190612eae565b610fed565b60405161043e9190613756565b60405180910390f35b610461600480360381019061045c9190612cde565b61145b565b60405161046e919061373b565b60405180910390f35b610491600480360381019061048c9190612eae565b6114ef565b60405161049e9190613719565b60405180910390f35b60007f80ac58cd000000000000000000000000000000000000000000000000000000007bffffffffffffffffffffffffffffffffffffffffffffffffffffffff1916827bffffffffffffffffffffffffffffffffffffffffffffffffffffffff1916148061057257507f5b5e139f000000000000000000000000000000000000000000000000000000007bffffffffffffffffffffffffffffffffffffffffffffffffffffffff1916827bffffffffffffffffffffffffffffffffffffffffffffffffffffffff1916145b80610582575061058182611796565b5b9050919050565b60006105956007611800565b905090565b6060600080546105a990613bfe565b80601f01602080910402602001604051908101604052809291908181526020018280546105d590613bfe565b80156106225780601f106105f757610100808354040283529160200191610622565b820191906000526020600020905b81548152906001019060200180831161060557829003601f168201915b5050505050905090565b60006106378261180e565b6004600083815260200190815260200160002060009054906101000a900473ffffffffffffffffffffffffffffffffffffffff169050919050565b600061067d82610878565b90508073ffffffffffffffffffffffffffffffffffffffff168373ffffffffffffffffffffffffffffffffffffffff1614156106ee576040517f08c379a00000000000000000000000000000000000000000000000000000000081526004016106e5906138b8565b60405180910390fd5b8073ffffffffffffffffffffffffffffffffffffffff1661070d611859565b73ffffffffffffffffffffffffffffffffffffffff16148061073c575061073b81610736611859565b61145b565b5b61077b576040517f08c379a0000000000000000000000000000000000000000000000000000000008152600401610772906138d8565b60405180910390fd5b6107858383611861565b505050565b61079b610795611859565b8261191a565b6107da576040517f08c379a00000000000000000000000000000000000000000000000000000000081526004016107d190613778565b60405180910390fd5b6107e58383836119af565b505050565b600a6020528060005260406000206000915090505481565b6000600960008373ffffffffffffffffffffffffffffffffffffffff1673ffffffffffffffffffffffffffffffffffffffff16815260200190815260200160002060009054906101000a900460ff169050919050565b61087383838360405180602001604052806000815250610ac8565b505050565b60008061088483611ca9565b9050600073ffffffffffffffffffffffffffffffffffffffff168173ffffffffffffffffffffffffffffffffffffffff1614156108f6576040517f08c379a00000000000000000000000000000000000000000000000000000000081526004016108ed90613898565b60405180910390fd5b80915050919050565b60008073ffffffffffffffffffffffffffffffffffffffff168273ffffffffffffffffffffffffffffffffffffffff161415610970576040517f08c379a000000000000000000000000000000000000000000000000000000000815260040161096790613838565b60405180910390fd5b600360008373ffffffffffffffffffffffffffffffffffffffff1673ffffffffffffffffffffffffffffffffffffffff168152602001908152602001600020549050919050565b6060600180546109c690613bfe565b80601f01602080910402602001604051908101604052809291908181526020018280546109f290613bfe565b8015610a3f5780601f10610a1457610100808354040283529160200191610a3f565b820191906000526020600020905b815481529060010190602001808311610a2257829003601f168201915b5050505050905090565b6000600a60008373ffffffffffffffffffffffffffffffffffffffff1673ffffffffffffffffffffffffffffffffffffffff168152602001908152602001600020549050919050565b60096020528060005260406000206000915054906101000a900460ff1681565b610ac4610abd611859565b8383611ce6565b5050565b610ad9610ad3611859565b8361191a565b610b18576040517f08c379a0000000000000000000000000000000000000000000000000000000008152600401610b0f90613778565b60405180910390fd5b610b2484848484611e53565b50505050565b6060610b358261180e565b6000600660008481526020019081526020016000208054610b5590613bfe565b80601f0160208091040260200160405190810160405280929190818152602001828054610b8190613bfe565b8015610bce5780601f10610ba357610100808354040283529160200191610bce565b820191906000526020600020905b815481529060010190602001808311610bb157829003601f168201915b505050505090506000610bdf611eaf565b9050600081511415610bf5578192505050610c38565b600082511115610c2a578082604051602001610c129291906134a8565b60405160208183030381529060405292505050610c38565b610c3384611ec6565b925050505b919050565b6103e8610c4a6007611800565b10610c8a576040517f08c379a0000000000000000000000000000000000000000000000000000000008152600401610c81906138f8565b60405180910390fd5b60001515600960003373ffffffffffffffffffffffffffffffffffffffff1673ffffffffffffffffffffffffffffffffffffffff16815260200190815260200160002060009054906101000a900460ff16151514610d1d576040517f08c379a0000000000000000000000000000000000000000000000000000000008152600401610d1490613918565b60405180910390fd5b6000610d296007611800565b90506001600960003373ffffffffffffffffffffffffffffffffffffffff1673ffffffffffffffffffffffffffffffffffffffff16815260200190815260200160002060006101000a81548160ff02191690831515021790555080600a60003373ffffffffffffffffffffffffffffffffffffffff1673ffffffffffffffffffffffffffffffffffffffff168152602001908152602001600020819055506000610dfc610dd66007611800565b33604051602001610de892919061365d565b6040516020818303038152906040526114ef565b90506000610e0982611f2e565b90506000610e72610e25600186610e209190613a67565b61203c565b604051602001610e35919061363b565b604051602081830303815290604052610e4d84612160565b604051602001610e5e929190613571565b604051602081830303815290604052612160565b9050600081604051602001610e879190613619565b6040516020818303038152906040529050610ea2338661231e565b610eac858261233c565b610eb660076123b0565b7febb98688741ffa4c7589bf325de30cf7becb63de567842e1ccdb6cb949fdc82c3386604051610ee79291906136f0565b60405180910390a15050505050565b60606000610f03836123c6565b905060088054905081610f169190613cd8565b905060088181548110610f52577f4e487b7100000000000000000000000000000000000000000000000000000000600052603260045260246000fd5b906000526020600020018054610f6790613bfe565b80601f0160208091040260200160405190810160405280929190818152602001828054610f9390613bfe565b8015610fe05780601f10610fb557610100808354040283529160200191610fe0565b820191906000526020600020905b815481529060010190602001808311610fc357829003601f168201915b5050505050915050919050565b60606000600667ffffffffffffffff811115611032577f4e487b7100000000000000000000000000000000000000000000000000000000600052604160045260246000fd5b60405190808252806020026020018201604052801561106557816020015b60608152602001906001900390816110505790505b50905060006040518060c001604052806040518060400160405280600981526020017f466972737442797465000000000000000000000000000000000000000000000081525081526020016040518060400160405280600a81526020017f5365636f6e64427974650000000000000000000000000000000000000000000081525081526020016040518060400160405280600981526020017f546869726442797465000000000000000000000000000000000000000000000081525081526020016040518060400160405280600a81526020017f466f75727468427974650000000000000000000000000000000000000000000081525081526020016040518060400160405280600981526020017f466966746842797465000000000000000000000000000000000000000000000081525081526020016040518060400160405280600981526020017f5369787468427974650000000000000000000000000000000000000000000000815250815250905060005b60068110156112a15761124a82826006811061121f577f4e487b7100000000000000000000000000000000000000000000000000000000600052603260045260246000fd5b6020020151866040516020016112369291906134a8565b604051602081830303815290604052610ef6565b838281518110611283577f4e487b7100000000000000000000000000000000000000000000000000000000600052603260045260246000fd5b6020026020010181905250808061129990613c61565b9150506111da565b50816000815181106112dc577f4e487b7100000000000000000000000000000000000000000000000000000000600052603260045260246000fd5b60200260200101518260018151811061131e577f4e487b7100000000000000000000000000000000000000000000000000000000600052603260045260246000fd5b602002602001015183600281518110611360577f4e487b7100000000000000000000000000000000000000000000000000000000600052603260045260246000fd5b6020026020010151846003815181106113a2577f4e487b7100000000000000000000000000000000000000000000000000000000600052603260045260246000fd5b6020026020010151856004815181106113e4577f4e487b7100000000000000000000000000000000000000000000000000000000600052603260045260246000fd5b602002602001015186600581518110611426577f4e487b7100000000000000000000000000000000000000000000000000000000600052603260045260246000fd5b6020026020010151604051602001611443969594939291906135b6565b60405160208183030381529060405292505050919050565b6000600560008473ffffffffffffffffffffffffffffffffffffffff1673ffffffffffffffffffffffffffffffffffffffff16815260200190815260200160002060008373ffffffffffffffffffffffffffffffffffffffff1673ffffffffffffffffffffffffffffffffffffffff16815260200190815260200160002060009054906101000a900460ff16905092915050565b60606000600367ffffffffffffffff811115611534577f4e487b7100000000000000000000000000000000000000000000000000000000600052604160045260246000fd5b60405190808252806020026020018201604052801561156757816020015b60608152602001906001900390816115525790505b509050600060405180606001604052806040518060400160405280600a81526020017f4669727374436f6c6f720000000000000000000000000000000000000000000081525081526020016040518060400160405280600b81526020017f5365636f6e64436f6c6f7200000000000000000000000000000000000000000081525081526020016040518060400160405280600a81526020017f5468697264436f6c6f7200000000000000000000000000000000000000000000815250815250905060005b60038110156116f25761169b828260038110611670577f4e487b7100000000000000000000000000000000000000000000000000000000600052603260045260246000fd5b6020020151866040516020016116879291906134a8565b604051602081830303815290604052610fed565b8382815181106116d4577f4e487b7100000000000000000000000000000000000000000000000000000000600052603260045260246000fd5b602002602001018190525080806116ea90613c61565b91505061162b565b508192505050919050565b611793816040516024016117119190613756565b6040516020818303038152906040527f41304fac000000000000000000000000000000000000000000000000000000007bffffffffffffffffffffffffffffffffffffffffffffffffffffffff19166020820180517bffffffffffffffffffffffffffffffffffffffffffffffffffffffff83818316178352505050506123f9565b50565b60007f01ffc9a7000000000000000000000000000000000000000000000000000000007bffffffffffffffffffffffffffffffffffffffffffffffffffffffff1916827bffffffffffffffffffffffffffffffffffffffffffffffffffffffff1916149050919050565b600081600001549050919050565b61181781612422565b611856576040517f08c379a000000000000000000000000000000000000000000000000000000000815260040161184d90613898565b60405180910390fd5b50565b600033905090565b816004600083815260200190815260200160002060006101000a81548173ffffffffffffffffffffffffffffffffffffffff021916908373ffffffffffffffffffffffffffffffffffffffff160217905550808273ffffffffffffffffffffffffffffffffffffffff166118d483610878565b73ffffffffffffffffffffffffffffffffffffffff167f8c5be1e5ebec7d5bd14f71427d1e84f3dd0314c0f7b2291e5b200ac8c7c3b92560405160405180910390a45050565b60008061192683610878565b90508073ffffffffffffffffffffffffffffffffffffffff168473ffffffffffffffffffffffffffffffffffffffff1614806119685750611967818561145b565b5b806119a657508373ffffffffffffffffffffffffffffffffffffffff1661198e8461062c565b73ffffffffffffffffffffffffffffffffffffffff16145b91505092915050565b8273ffffffffffffffffffffffffffffffffffffffff166119cf82610878565b73ffffffffffffffffffffffffffffffffffffffff1614611a25576040517f08c379a0000000000000000000000000000000000000000000000000000000008152600401611a1c906137b8565b60405180910390fd5b600073ffffffffffffffffffffffffffffffffffffffff168273ffffffffffffffffffffffffffffffffffffffff161415611a95576040517f08c379a0000000000000000000000000000000000000000000000000000000008152600401611a8c906137f8565b60405180910390fd5b611aa28383836001612463565b8273ffffffffffffffffffffffffffffffffffffffff16611ac282610878565b73ffffffffffffffffffffffffffffffffffffffff1614611b18576040517f08c379a0000000000000000000000000000000000000000000000000000000008152600401611b0f906137b8565b60405180910390fd5b6004600082815260200190815260200160002060006101000a81549073ffffffffffffffffffffffffffffffffffffffff02191690556001600360008573ffffffffffffffffffffffffffffffffffffffff1673ffffffffffffffffffffffffffffffffffffffff168152602001908152602001600020600082825403925050819055506001600360008473ffffffffffffffffffffffffffffffffffffffff1673ffffffffffffffffffffffffffffffffffffffff16815260200190815260200160002060008282540192505081905550816002600083815260200190815260200160002060006101000a81548173ffffffffffffffffffffffffffffffffffffffff021916908373ffffffffffffffffffffffffffffffffffffffff160217905550808273ffffffffffffffffffffffffffffffffffffffff168473ffffffffffffffffffffffffffffffffffffffff167fddf252ad1be2c89b69c2b068fc378daa952ba7f163c4a11628f55a4df523b3ef60405160405180910390a4611ca48383836001612469565b505050565b60006002600083815260200190815260200160002060009054906101000a900473ffffffffffffffffffffffffffffffffffffffff169050919050565b8173ffffffffffffffffffffffffffffffffffffffff168373ffffffffffffffffffffffffffffffffffffffff161415611d55576040517f08c379a0000000000000000000000000000000000000000000000000000000008152600401611d4c90613818565b60405180910390fd5b80600560008573ffffffffffffffffffffffffffffffffffffffff1673ffffffffffffffffffffffffffffffffffffffff16815260200190815260200160002060008473ffffffffffffffffffffffffffffffffffffffff1673ffffffffffffffffffffffffffffffffffffffff16815260200190815260200160002060006101000a81548160ff0219169083151502179055508173ffffffffffffffffffffffffffffffffffffffff168373ffffffffffffffffffffffffffffffffffffffff167f17307eab39ab6107e8899845ad3d59bd9653f200f220920489ca2b5937696c3183604051611e46919061373b565b60405180910390a3505050565b611e5e8484846119af565b611e6a8484848461246f565b611ea9576040517f08c379a0000000000000000000000000000000000000000000000000000000008152600401611ea090613798565b60405180910390fd5b50505050565b606060405180602001604052806000815250905090565b6060611ed18261180e565b6000611edb611eaf565b90506000815111611efb5760405180602001604052806000815250611f26565b80611f058461203c565b604051602001611f169291906134a8565b6040516020818303038152906040525b915050919050565b6060600082600081518110611f6c577f4e487b7100000000000000000000000000000000000000000000000000000000600052603260045260246000fd5b60200260200101519050600083600181518110611fb2577f4e487b7100000000000000000000000000000000000000000000000000000000600052603260045260246000fd5b60200260200101519050600084600281518110611ff8577f4e487b7100000000000000000000000000000000000000000000000000000000600052603260045260246000fd5b60200260200101519050600083838585858860405160200161201f969594939291906134cc565b604051602081830303815290604052905080945050505050919050565b60606000600161204b84612606565b01905060008167ffffffffffffffff811115612090577f4e487b7100000000000000000000000000000000000000000000000000000000600052604160045260246000fd5b6040519080825280601f01601f1916602001820160405280156120c25781602001600182028036833780820191505090505b509050600082602001820190505b600115612155578080600190039150507f3031323334353637383961626364656600000000000000000000000000000000600a86061a8153600a858161213f577f4e487b7100000000000000000000000000000000000000000000000000000000600052601260045260246000fd5b049450600085141561215057612155565b6120d0565b819350505050919050565b606060008251905060008114156121895760405180602001604052806000815250915050612319565b6000600360028361219a9190613a67565b6121a49190613abd565b60046121b09190613aee565b905060006020826121c19190613a67565b67ffffffffffffffff811115612200577f4e487b7100000000000000000000000000000000000000000000000000000000600052604160045260246000fd5b6040519080825280601f01601f1916602001820160405280156122325781602001600182028036833780820191505090505b5090506000604051806060016040528060408152602001615f2d604091399050600181016020830160005b868110156122d65760038101905062ffffff818a015116603f8160121c168401518060081b905060ff603f83600c1c1686015116810190508060081b905060ff603f8360061c1686015116810190508060081b905060ff603f831686015116810190508060e01b9050808452600484019350505061225d565b5060038606600181146122f057600281146123005761230b565b613d3d60f01b600283035261230b565b603d60f81b60018303525b508484525050819450505050505b919050565b61233882826040518060200160405280600081525061283d565b5050565b61234582612422565b612384576040517f08c379a000000000000000000000000000000000000000000000000000000000815260040161237b90613858565b60405180910390fd5b806006600084815260200190815260200160002090805190602001906123ab929190612ad9565b505050565b6001816000016000828254019250508190555050565b6000816040516020016123d99190613491565b6040516020818303038152906040528051906020012060001c9050919050565b60008151905060006a636f6e736f6c652e6c6f679050602083016000808483855afa5050505050565b60008073ffffffffffffffffffffffffffffffffffffffff1661244483611ca9565b73ffffffffffffffffffffffffffffffffffffffff1614159050919050565b50505050565b50505050565b60006124908473ffffffffffffffffffffffffffffffffffffffff16612898565b156125f9578373ffffffffffffffffffffffffffffffffffffffff1663150b7a026124b9611859565b8786866040518563ffffffff1660e01b81526004016124db94939291906136a4565b602060405180830381600087803b1580156124f557600080fd5b505af192505050801561252657506040513d601f19601f820116820180604052508101906125239190612e85565b60015b6125a9573d8060008114612556576040519150601f19603f3d011682016040523d82523d6000602084013e61255b565b606091505b506000815114156125a1576040517f08c379a000000000000000000000000000000000000000000000000000000000815260040161259890613798565b60405180910390fd5b805181602001fd5b63150b7a0260e01b7bffffffffffffffffffffffffffffffffffffffffffffffffffffffff1916817bffffffffffffffffffffffffffffffffffffffffffffffffffffffff1916149150506125fe565b600190505b949350505050565b600080600090507a184f03e93ff9f4daa797ed6e38ed64bf6a1f010000000000000000831061268a577a184f03e93ff9f4daa797ed6e38ed64bf6a1f0100000000000000008381612680577f4e487b7100000000000000000000000000000000000000000000000000000000600052601260045260246000fd5b0492506040810190505b6d04ee2d6d415b85acef810000000083106126ed576d04ee2d6d415b85acef810000000083816126e3577f4e487b7100000000000000000000000000000000000000000000000000000000600052601260045260246000fd5b0492506020810190505b662386f26fc10000831061274257662386f26fc100008381612738577f4e487b7100000000000000000000000000000000000000000000000000000000600052601260045260246000fd5b0492506010810190505b6305f5e1008310612791576305f5e1008381612787577f4e487b7100000000000000000000000000000000000000000000000000000000600052601260045260246000fd5b0492506008810190505b61271083106127dc5761271083816127d2577f4e487b7100000000000000000000000000000000000000000000000000000000600052601260045260246000fd5b0492506004810190505b60648310612825576064838161281b577f4e487b7100000000000000000000000000000000000000000000000000000000600052601260045260246000fd5b0492506002810190505b600a8310612834576001810190505b80915050919050565b61284783836128bb565b612854600084848461246f565b612893576040517f08c379a000000000000000000000000000000000000000000000000000000000815260040161288a90613798565b60405180910390fd5b505050565b6000808273ffffffffffffffffffffffffffffffffffffffff163b119050919050565b600073ffffffffffffffffffffffffffffffffffffffff168273ffffffffffffffffffffffffffffffffffffffff16141561292b576040517f08c379a000000000000000000000000000000000000000000000000000000000815260040161292290613878565b60405180910390fd5b61293481612422565b15612974576040517f08c379a000000000000000000000000000000000000000000000000000000000815260040161296b906137d8565b60405180910390fd5b612982600083836001612463565b61298b81612422565b156129cb576040517f08c379a00000000000000000000000000000000000000000000000000000000081526004016129c2906137d8565b60405180910390fd5b6001600360008473ffffffffffffffffffffffffffffffffffffffff1673ffffffffffffffffffffffffffffffffffffffff16815260200190815260200160002060008282540192505081905550816002600083815260200190815260200160002060006101000a81548173ffffffffffffffffffffffffffffffffffffffff021916908373ffffffffffffffffffffffffffffffffffffffff160217905550808273ffffffffffffffffffffffffffffffffffffffff16600073ffffffffffffffffffffffffffffffffffffffff167fddf252ad1be2c89b69c2b068fc378daa952ba7f163c4a11628f55a4df523b3ef60405160405180910390a4612ad5600083836001612469565b5050565b828054612ae590613bfe565b90600052602060002090601f016020900481019282612b075760008555612b4e565b82601f10612b2057805160ff1916838001178555612b4e565b82800160010185558215612b4e579182015b82811115612b4d578251825591602001919060010190612b32565b5b509050612b5b9190612b5f565b5090565b5b80821115612b78576000816000905550600101612b60565b5090565b6000612b8f612b8a84613978565b613953565b905082815260208101848484011115612ba757600080fd5b612bb2848285613bbc565b509392505050565b6000612bcd612bc8846139a9565b613953565b905082815260208101848484011115612be557600080fd5b612bf0848285613bbc565b509392505050565b600081359050612c0781615ed0565b92915050565b600081359050612c1c81615ee7565b92915050565b600081359050612c3181615efe565b92915050565b600081519050612c4681615efe565b92915050565b600082601f830112612c5d57600080fd5b8135612c6d848260208601612b7c565b91505092915050565b600082601f830112612c8757600080fd5b8135612c97848260208601612bba565b91505092915050565b600081359050612caf81615f15565b92915050565b600060208284031215612cc757600080fd5b6000612cd584828501612bf8565b91505092915050565b60008060408385031215612cf157600080fd5b6000612cff85828601612bf8565b9250506020612d1085828601612bf8565b9150509250929050565b600080600060608486031215612d2f57600080fd5b6000612d3d86828701612bf8565b9350506020612d4e86828701612bf8565b9250506040612d5f86828701612ca0565b9150509250925092565b60008060008060808587031215612d7f57600080fd5b6000612d8d87828801612bf8565b9450506020612d9e87828801612bf8565b9350506040612daf87828801612ca0565b925050606085013567ffffffffffffffff811115612dcc57600080fd5b612dd887828801612c4c565b91505092959194509250565b60008060408385031215612df757600080fd5b6000612e0585828601612bf8565b9250506020612e1685828601612c0d565b9150509250929050565b60008060408385031215612e3357600080fd5b6000612e4185828601612bf8565b9250506020612e5285828601612ca0565b9150509250929050565b600060208284031215612e6e57600080fd5b6000612e7c84828501612c22565b91505092915050565b600060208284031215612e9757600080fd5b6000612ea584828501612c37565b91505092915050565b600060208284031215612ec057600080fd5b600082013567ffffffffffffffff811115612eda57600080fd5b612ee684828501612c76565b91505092915050565b600060208284031215612f0157600080fd5b6000612f0f84828501612ca0565b91505092915050565b6000612f24838361300f565b905092915050565b612f3581613b48565b82525050565b612f4c612f4782613b48565b613caa565b82525050565b6000612f5d826139ea565b612f678185613a18565b935083602082028501612f79856139da565b8060005b85811015612fb55784840389528151612f968582612f18565b9450612fa183613a0b565b925060208a01995050600181019050612f7d565b50829750879550505050505092915050565b612fd081613b5a565b82525050565b6000612fe1826139f5565b612feb8185613a29565b9350612ffb818560208601613bcb565b61300481613dc5565b840191505092915050565b600061301a82613a00565b6130248185613a3a565b9350613034818560208601613bcb565b61303d81613dc5565b840191505092915050565b600061305382613a00565b61305d8185613a4b565b935061306d818560208601613bcb565b61307681613dc5565b840191505092915050565b600061308c82613a00565b6130968185613a5c565b93506130a6818560208601613bcb565b80840191505092915050565b60006130bf606f83613a5c565b91506130ca82613de3565b606f82019050919050565b60006130e2602d83613a4b565b91506130ed82613e7e565b604082019050919050565b6000613105607683613a5c565b915061311082613ecd565b607682019050919050565b6000613128603283613a4b565b915061313382613f68565b604082019050919050565b600061314b602583613a4b565b915061315682613fb7565b604082019050919050565b600061316e601c83613a4b565b915061317982614006565b602082019050919050565b6000613191602483613a4b565b915061319c8261402f565b604082019050919050565b60006131b4601983613a4b565b91506131bf8261407e565b602082019050919050565b60006131d7605683613a5c565b91506131e2826140a7565b605682019050919050565b60006131fb610c6183613a5c565b91506132068261411c565b610c6182019050919050565b600061321f606783613a5c565b915061322a82615053565b606782019050919050565b600061324361030b83613a5c565b915061324e826150ee565b61030b82019050919050565b6000613267602983613a4b565b9150613272826154b8565b604082019050919050565b600061328a602e83613a4b565b915061329582615507565b604082019050919050565b60006132ad600283613a5c565b91506132b882615556565b600282019050919050565b60006132d0602083613a4b565b91506132db8261557f565b602082019050919050565b60006132f3600a83613a5c565b91506132fe826155a8565b600a82019050919050565b6000613316600183613a5c565b9150613321826155d1565b600182019050919050565b6000613339601883613a4b565b9150613344826155fa565b602082019050919050565b600061335c602183613a4b565b915061336782615623565b604082019050919050565b600061337f601d83613a5c565b915061338a82615672565b601d82019050919050565b60006133a2600c83613a5c565b91506133ad8261569b565b600c82019050919050565b60006133c661045283613a5c565b91506133d1826156c4565b61045282019050919050565b60006133ea603d83613a4b565b91506133f582615c14565b604082019050919050565b600061340d603f83613a4b565b915061341882615c63565b604082019050919050565b600061343161016f83613a5c565b915061343c82615cb2565b61016f82019050919050565b6000613455602783613a4b565b915061346082615e81565b604082019050919050565b61347481613bb2565b82525050565b61348b61348682613bb2565b613cce565b82525050565b600061349d8284613081565b915081905092915050565b60006134b48285613081565b91506134c08284613081565b91508190509392505050565b60006134d7826130b2565b91506134e38289613081565b91506134ee826130f8565b91506134fa8288613081565b9150613505826131ca565b91506135118287613081565b915061351c82613423565b91506135288286613081565b9150613533826133b8565b915061353f8285613081565b915061354a826131ed565b91506135568284613081565b915061356182613235565b9150819050979650505050505050565b600061357c826132e6565b91506135888285613081565b915061359382613212565b915061359f8284613081565b91506135aa826132a0565b91508190509392505050565b60006135c182613309565b91506135cd8289613081565b91506135d98288613081565b91506135e58287613081565b91506135f18286613081565b91506135fd8285613081565b91506136098284613081565b9150819050979650505050505050565b600061362482613372565b91506136308284613081565b915081905092915050565b600061364682613395565b91506136528284613081565b915081905092915050565b6000613669828561347a565b6020820191506136798284612f3b565b6014820191508190509392505050565b600060208201905061369e6000830184612f2c565b92915050565b60006080820190506136b96000830187612f2c565b6136c66020830186612f2c565b6136d3604083018561346b565b81810360608301526136e58184612fd6565b905095945050505050565b60006040820190506137056000830185612f2c565b613712602083018461346b565b9392505050565b600060208201905081810360008301526137338184612f52565b905092915050565b60006020820190506137506000830184612fc7565b92915050565b600060208201905081810360008301526137708184613048565b905092915050565b60006020820190508181036000830152613791816130d5565b9050919050565b600060208201905081810360008301526137b18161311b565b9050919050565b600060208201905081810360008301526137d18161313e565b9050919050565b600060208201905081810360008301526137f181613161565b9050919050565b6000602082019050818103600083015261381181613184565b9050919050565b60006020820190508181036000830152613831816131a7565b9050919050565b600060208201905081810360008301526138518161325a565b9050919050565b600060208201905081810360008301526138718161327d565b9050919050565b60006020820190508181036000830152613891816132c3565b9050919050565b600060208201905081810360008301526138b18161332c565b9050919050565b600060208201905081810360008301526138d18161334f565b9050919050565b600060208201905081810360008301526138f1816133dd565b9050919050565b6000602082019050818103600083015261391181613400565b9050919050565b6000602082019050818103600083015261393181613448565b9050919050565b600060208201905061394d600083018461346b565b92915050565b600061395d61396e565b90506139698282613c30565b919050565b6000604051905090565b600067ffffffffffffffff82111561399357613992613d96565b5b61399c82613dc5565b9050602081019050919050565b600067ffffffffffffffff8211156139c4576139c3613d96565b5b6139cd82613dc5565b9050602081019050919050565b6000819050602082019050919050565b600081519050919050565b600081519050919050565b600081519050919050565b6000602082019050919050565b600082825260208201905092915050565b600082825260208201905092915050565b600082825260208201905092915050565b600082825260208201905092915050565b600081905092915050565b6000613a7282613bb2565b9150613a7d83613bb2565b9250827fffffffffffffffffffffffffffffffffffffffffffffffffffffffffffffffff03821115613ab257613ab1613d09565b5b828201905092915050565b6000613ac882613bb2565b9150613ad383613bb2565b925082613ae357613ae2613d38565b5b828204905092915050565b6000613af982613bb2565b9150613b0483613bb2565b9250817fffffffffffffffffffffffffffffffffffffffffffffffffffffffffffffffff0483118215151615613b3d57613b3c613d09565b5b828202905092915050565b6000613b5382613b92565b9050919050565b60008115159050919050565b60007fffffffff0000000000000000000000000000000000000000000000000000000082169050919050565b600073ffffffffffffffffffffffffffffffffffffffff82169050919050565b6000819050919050565b82818337600083830152505050565b60005b83811015613be9578082015181840152602081019050613bce565b83811115613bf8576000848401525b50505050565b60006002820490506001821680613c1657607f821691505b60208210811415613c2a57613c29613d67565b5b50919050565b613c3982613dc5565b810181811067ffffffffffffffff82111715613c5857613c57613d96565b5b80604052505050565b6000613c6c82613bb2565b91507fffffffffffffffffffffffffffffffffffffffffffffffffffffffffffffffff821415613c9f57613c9e613d09565b5b600182019050919050565b6000613cb582613cbc565b9050919050565b6000613cc782613dd6565b9050919050565b6000819050919050565b6000613ce382613bb2565b9150613cee83613bb2565b925082613cfe57613cfd613d38565b5b828206905092915050565b7f4e487b7100000000000000000000000000000000000000000000000000000000600052601160045260246000fd5b7f4e487b7100000000000000000000000000000000000000000000000000000000600052601260045260246000fd5b7f4e487b7100000000000000000000000000000000000000000000000000000000600052602260045260246000fd5b7f4e487b7100000000000000000000000000000000000000000000000000000000600052604160045260246000fd5b6000601f19601f8301169050919050565b60008160601b9050919050565b7f3c73766720786d6c6e733d27687474703a2f2f7777772e77332e6f72672f323060008201527f30302f737667272077696474683d2733353027206865696768743d273430342760208201527f2076696577426f783d272d302e34202d302e37203137352e31203230312e362760408201527f3e20203c706174682066696c6c3d270000000000000000000000000000000000606082015250565b7f4552433732313a2063616c6c6572206973206e6f7420746f6b656e206f776e6560008201527f72206f7220617070726f76656400000000000000000000000000000000000000602082015250565b7f2720643d274d3135392031333171302031362d31302032362d3920392d32322060008201527f31332d313220342d323520312d31322d322d31382d396c332d3720312d31317160208201527f3620372031352031302039203420313820332032332d332033342d32396c312060408201527f3220332031272f3e20203c706174682066696c6c3d2700000000000000000000606082015250565b7f4552433732313a207472616e7366657220746f206e6f6e20455243373231526560008201527f63656976657220696d706c656d656e7465720000000000000000000000000000602082015250565b7f4552433732313a207472616e736665722066726f6d20696e636f72726563742060008201527f6f776e6572000000000000000000000000000000000000000000000000000000602082015250565b7f4552433732313a20746f6b656e20616c7265616479206d696e74656400000000600082015250565b7f4552433732313a207472616e7366657220746f20746865207a65726f2061646460008201527f7265737300000000000000000000000000000000000000000000000000000000602082015250565b7f4552433732313a20617070726f766520746f2063616c6c657200000000000000600082015250565b7f2720643d274d3834203136327131342031322033332031302031372d3220333260008201527f2d31332d31352031372d33382031372d3920302d31372d322d372d332d31312d60208201527f376c312d35272f3e20203c706174682066696c6c3d2700000000000000000000604082015250565b7f2720643d276d343720333620322d32763671312032203320326c322d3120332d60008201527f35203120352d3120342d362031682d336c2d312d37762d334d31372032386c3160208201527f20322d3120332d3320342d322d332d312d33762d336c312d3220312d3168316c60408201527f2d3120352031203220322d3120312d33272f3e20203c706174682066696c6c3d60608201527f27233064313331612720643d274d34352030713138203220323420323120332060808201527f382033203137203020382d332031356c2d3320382d312037712d3120362d322060a08201527f35762d356c342d313571332d3620332d31356c2d322d3136513632203420343560c08201527f2032712d372d312d313520322d3720332d313220386c2d31203276336c2d312060e08201527f31762d31712d322d3320312d3620352d362031332d397431352d32272f3e20206101008201527f3c706174682066696c6c3d27233064313331612720643d274d353720343471326101208201527f2d3520312d3133742d342d38712d3320302d3620362d3420372d3320313668366101408201527f6c362d316d2d31332031712d312d3820322d313620342d3820382d37203620306101608201527f2036203130203020392d322031336c2d372032712d3720302d372d324d3138206101808201527f31366c2d3420362d322039203120332031203271322d3120342d313020322d316101a08201527f3020302d31306d2d35203571332d3720362d362033203020312031312d3320316101c08201527f312d362031312d3120312d322d326c2d312d3420322d31304d3134203434762d6101e08201527f326c31203176336c2d312d324d323720343768316c2d3120312d32203120312d6102008201527f3120312d31272f3e20203c706174682066696c6c3d27233064313331612720646102208201527f3d276d3520343120312d3276326c3120322035203520352033203135203220316102408201527f35203120322d3120322d3120312d3176326c2d3220312d3220312d31352d312d6102608201527f31362d322d362d332d352d352d312d31762d32272f3e20203c706174682066696102808201527f6c6c3d27233064313331612720643d274d313020343968316c362031312036206102a08201527f35713420312031322d3220392d342031332d396832712d3520362d31342031306102c08201527f742d31342032712d3220302d362d356c2d362d3131762d31272f3e20203c70616102e08201527f74682066696c6c3d27233064313331612720643d274d3720343568316c3120326103008201527f763268316c312d31203120312d32203148396c2d312d322d312d334d333820356103208201527f346c3120312d3220322d3320312d312d322d312d32762d316c312031203120326103408201527f2031203120312d3120322d324d3134203536712d31203020302030683376326c6103608201527f2d312031682d316c312d32762d316c2d322031762d314d33322036316c3120316103808201527f203220317631682d316c2d322d327633682d31762d326c312d324d32352037316103a08201527f7632712d3620342d3130203954362039386c2d34203576337131203120352d316103c08201527f683176316c31203420322d3120342d3476316c2d3320342d342032712d322d316103e08201527f2d322d356c2d3320312d332d31762d336c342d3771362d31312031312d31366c6104008201527f31302d3130272f3e20203c706174682066696c6c3d27233064313331612720646104208201527f3d276d36203130302d31203368356c2d3220312d342031712d322d3120312d356104408201527f20312d3220322d316c2d3120314d32352037326831712d31332033312d3131206104608201527f353420342033312033372033356c3120317631712d33362d342d34302d33362d6104808201527f322d32342031322d3535272f3e20203c706174682066696c6c3d2723306431336104a08201527f31612720643d274d323020383271322d3420352d366c362d32713320302038206104c08201527f36203520372038203137203920323420372034306c2d312032682d3171332d316104e08201527f382d362d34326c2d382d3135712d352d372d372d376c2d3520322d3520372d316105008201527f2d324d36332036386c312d3320312d32203620333371332031342031302032346105208201527f20313020313720372033316c2d332031312d322031312d3120342d312d3520336105408201527f2d313120322d313171322d31332d382d32392d362d31312d392d32346c2d362d6105608201527f3239272f3e20203c706174682066696c6c3d27233064313331612720643d274d6105808201527f36302031373268316c3120313076386c3520336838713920302031312d386c2d6105a08201527f322d372d322d36762d316c312d312033203820322037712d3220392d313320316105c08201527f306c2d382d31712d352d312d362d336c2d312d3971312d372d312d31316c31206105e08201527f31272f3e20203c706174682066696c6c3d27233064313331612720643d274d356106008201527f342031333671312d3420322d336c2d312034712d3520392d33203138203120316106208201527f3020392031376c3220332d332d32712d392d372d31302d31372d322d313020346106408201527f2d32304d3138203134306c312031712d3420332d3720382d3320362d332031306106608201527f6c33203620362035203320322d342d312d372d352d332d3771302d3520342d316106808201527f3120332d3520372d384d343020313637762d3168316c32203576346c2d3620346106a08201527f2d31332033762d32713620302031322d336c362d33762d336c2d322d34272f3e6106c08201527f20203c706174682066696c6c3d27233064313331612720643d276d31342031366106e08201527f382031203176316c2d3320312d33203248376c342d3320332d324d34302031366107008201527f396c2d322032762d336c332d3520342d332031203168316c2d3420332d3320356107208201527f272f3e20203c706174682066696c6c3d27233064313331612720643d276d31316107408201527f2031373420312033682d32762d326c2d312d312d3420322d33203220332031206107608201527f342d31763171312030203020306c2d3620312d332d3120342d3471332d3320356107808201527f2d336c322032272f3e20203c706174682066696c6c3d272330643133316127206107a08201527f643d276d3137203137392d312d332d312d312d3420332d33203368336c352d316107c08201527f76316c2d3620314837712d312d3120322d3420332d3420352d346c33203120316107e08201527f2034682d31272f3e20203c706174682066696c6c3d27233064313331612720646108008201527f3d276d31332031383420332d3571332d3320352d3320312d31203320326c31206108208201527f33713020322d362033682d366d322d3120342d3120342d31762d336c2d322d316108408201527f2d3420332d3220334d3135342031323868316c312031712d362031332d3135206108608201527f3230742d31392039712d313020312d32302d332d392d332d31352d3130762d316108808201527f6c312d31713620372031362031312039203320313920322031302d322031382d6108a08201527f397431332d3139272f3e20203c706174682066696c6c3d2723306431333161276108c08201527f20643d274d313539203133316831712d322031382d31322032392d392031302d6108e08201527f32322031352d313320332d32352031742d31382d38762d3271362036203138206109008201527f387432342d317131332d342032322d31332031302d31312031322d3239272f3e6109208201527f20203c706174682066696c6c3d27233064313331612720643d274d31353820316109408201527f34307633712d352031332d31362032312d3920372d323120382d313120322d326109608201527f322d312d31302d322d31352d38762d316c312d317135203620313520397432316109808201527f20317131332d322032322d392031302d382031352d32324d313638203937762d6109a08201527f326c2d3120312d332032762d3471312d362d322d376c2d322d3220312d3420316109c08201527f2d362d312d352d3120342d3220322d3520362d31203476336c2d3120322d31206109e08201527f3176326c2d3120322d312d32762d386c2d312d322d31203276336c3120332d31610a008201527f20322d3120322031203276336c2d31203520312033203120322d3120332d3120610a208201527f322d31203220312034203320332035203120332033203320317131203120332d610a408201527f316c332d3220322d3320312d3220332d3220312d33762d346c312d33762d356c610a608201527f2d3120322d3120332d322032762d386c2d322031762d326c312d366d2d352d32610a808201527f3476336c2d31203676337133203220332034763771332d3320342d32742d3120610aa08201527f396c322d3176366c322d3320312d3220312d327631326c2d312034713120322d610ac08201527f3120346c2d3420332d3120322d3220322d3220322d3420322d342d32712d322d610ae08201527f342d372d342d3220302d342d336c2d322d3420322d3420312d342d312d312d31610b008201527f2d32712d312d3220322d37762d336c2d312d3220312d33762d386c322d332031610b208201527f2d3176336c31203376366c312d3320312d32762d3271302d3420322d376c352d610b408201527f3420312d3520312d3420322034203120334d35302032346832712d3420342d34610b608201527f2031312d3120372031203131682d32712d322d342d312d313120312d3820342d610b808201527f31314d32312035326c3120312d3420312d342032682d31762d3171342d332038610ba08201527f2d33272f3e20203c706174682066696c6c3d27236666662720643d276d363220610bc08201527f31393120322d3220322d3120322032203120332d3320342d3320332d312d3476610be08201527f2d354d3732203139336c312d3320322d3271322030203320326c3120362d3120610c008201527f342d332d322d332d354d38322031393171302d3320322d3420322d3220332d31610c208201527f6c312036203120352d342d322d332d34272f3e20203c706174682066696c6c3d610c408201527f2700000000000000000000000000000000000000000000000000000000000000610c6082015250565b7f222c20226465736372697074696f6e223a2022556d6120636f6c6563616f206460008201527f6520436861726d616e64657273207368696e79206578636c757369766f73212e60208201527f222c2022696d616765223a2022646174613a696d6167652f7376672b786d6c3b60408201527f6261736536342c00000000000000000000000000000000000000000000000000606082015250565b7f2720643d276d3535203732203131203138712d3220382d31302031356c2d382060008201527f382d3420332d3320322d312d332d312d332d322032682d34762d356c2d332d3160208201527f20322d3220332d3471322d31302031312d32316c392d39272f3e20203c70617460408201527f682066696c6c3d27233064313331612720643d276d3636203138392d3320317660608201527f356c31203420322d3220322d342d312d332d312d316d302d317132203020322060808201527f326c3120332d322034712d3320342d3420336c2d312d34762d366c312d32683360a08201527f4d3738203139306c2d322d31682d316c2d3120312d312032203220352032203260c08201527f20312d33762d366d2d312d322032203276366c2d312035712d3220302d342d3460e08201527f2d332d332d322d35762d336c332d3168324d3833203139316c322033203320326101008201527f762d346c2d322d352d3220312d3120336d2d312030712d312d3220312d3420316101208201527f2d3220332d32203220312033203776366c2d342d32712d332d332d332d354d356101408201527f322037346c332d322d322033712d3620352d31312031326c2d362031352d32206101608201527f322d3220322d312032683376326c2d342d31712d322d3120312d346c322d32206101808201527f312d3171322d3820372d313620352d372031312d3132272f3e203c70617468206101a08201527f66696c6c3d27233064313331612720643d274d31312032397632712d3620352d6101c08201527f362031302d312036203620313774313220313368386c31302d3368336c2d33206101e08201527f322d31312032682d37712d362d322d31332d31332d382d31322d372d313820306102008201527f2d3320332d366c352d364d35312032306c2d3320322d3120322d322032762d326102208201527f6c352d35683176314d3230203134762d326c31203171322032203220362030206102408201527f322d3120316c2d312d312d312d35272f3e203c706174682066696c6c3d2723306102608201527f64313331612720643d274d363420393371312d3420322d336c2d3120342d36206102808201527f3130712d3420352d3920386c2d352034712d3320332d3520336c2d312d32762d6102a08201527f346c2d342032682d326c2d312d3320312d3320322d3376336c2d31203468326c6102c08201527f332d3120312d3176316c31203520342d3220342d3420382d3871352d3520372d6102e08201527f3130272f3e3c2f7376673e00000000000000000000000000000000000000000061030082015250565b7f4552433732313a2061646472657373207a65726f206973206e6f74206120766160008201527f6c6964206f776e65720000000000000000000000000000000000000000000000602082015250565b7f45524337323155524953746f726167653a2055524920736574206f66206e6f6e60008201527f6578697374656e7420746f6b656e000000000000000000000000000000000000602082015250565b7f227d000000000000000000000000000000000000000000000000000000000000600082015250565b7f4552433732313a206d696e7420746f20746865207a65726f2061646472657373600082015250565b7f7b226e616d65223a202200000000000000000000000000000000000000000000600082015250565b7f2300000000000000000000000000000000000000000000000000000000000000600082015250565b7f4552433732313a20696e76616c696420746f6b656e2049440000000000000000600082015250565b7f4552433732313a20617070726f76616c20746f2063757272656e74206f776e6560008201527f7200000000000000000000000000000000000000000000000000000000000000602082015250565b7f646174613a6170706c69636174696f6e2f6a736f6e3b6261736536342c000000600082015250565b7f436861726d616e64657220230000000000000000000000000000000000000000600082015250565b7f2720643d276d3337203739203820313471313020323220392034346c2d33203860008201527f712d3220313020312031372d382d312d31362d352d31382d382d32312d32362d60208201527f322d313420312d33326c362d313920332d3320362d337132203020362035272f60408201527f3e20203c706174682066696c6c3d27233932326630302720643d276d3920343660608201527f203320322035203468336c2d3620342d352d3130272f3e20203c70617468206660808201527f696c6c3d27236564383539392720643d276d323020353220313620326831337160a08201527f2d3220342d313120382d3920352d313620346c2d332d332d352d3720362d342760c08201527f2f3e20203c706174682066696c6c3d27236666662720643d276d35302032342d60e08201527f33203131712d31203620312031316c2d332d31712d322d3320302d313020322d6101008201527f3820352d3131272f3e20203c706174682066696c6c3d272330643133316127206101208201527f643d274d35342032327135203120352031316c2d312031312d342032682d36716101408201527f2d322d352d312d31316c332d313120342d324d31312033306c322d3871332d376101608201527f20362d362032203120302031312d332031302d352031306c2d322d342d312d336101808201527f272f3e20203c706174682066696c6c3d27236666662720643d276d37203435206101a08201527f3520332d3320322d322d354d3134203536683276336c2d322d334d33312036356101c08201527f762d326c312d31203320322d3420314d333220353468366c2d3320332d332d336101e08201527f4d3138203137396c322d3220312d3171322030203320336c3120322d362032686102008201527f2d356c312d3120312d312d3620312d332d3120312d3120312d3148316c332d346102208201527f71342d3320352d326c32203420312d3171312d3220332d316c322032203120326102408201527f272f3e20203c706174682066696c6c3d27236566653930382720643d274d31346102608201527f3820383576376c312032762d316c34203376336c31203176346c3320312d32206102808201527f3476346c342d3276366c32203376346c2d3120347633682d326c2d332d332d346102a08201527f2d322d342d312d322d322d322d3520322d3420312d332d312d322d312d3320316102c08201527f2d3320312d332d312d32762d346c312d32762d34712d312d3320312d366c31206102e08201527f327631272f3e20203c706174682066696c6c3d27236535303032302720643d276103008201527f4d31363320383771322031203220336c2d31203720322d3120322d327631306c6103208201527f312d3120312d3176386c342d3676366c2d3120332d31203476326c2d3120312d6103408201527f3220322d32203276326c2d3220322d352033762d336c312d34762d346c2d322d6103608201527f33762d366c2d342032762d346c322d342d332d31762d346c2d312d31762d336c6103808201527f2d332d3320322d342d312d3320312d3420342d3420332d3320312d33762d346c6103a08201527f31203271322034203120366c2d31203576346c322032272f3e20203c706174686103c08201527f2066696c6c3d27236666662720643d276d35352032342032203276356c2d32206103e08201527f352d3220312d322d33762d3471302d3320322d3520312d3220322d314d3139206104008201527f313776356c2d3220352d3120312d312d3220312d3420312d3471312d3220322d6104208201527f31272f3e20203c706174682066696c6c3d27000000000000000000000000000061044082015250565b7f4552433732313a20617070726f76652063616c6c6572206973206e6f7420746f60008201527f6b656e206f776e6572206f7220617070726f76656420666f7220616c6c000000602082015250565b7f4f206e756d65726f206d6178696d6f206465204e4654732063756e6861646f7360008201527f20646573746120636f6c6563616f206a6120666f69206174696e6769646f2e00602082015250565b7f2720643d276d37312034332d342031322d32203130712d312032203120396c3160008201527f20313171352032322031302033316c39203136713420313020322031386c2d3460208201527f2031342d3220382033203671332037203220396c2d3520352d362032712d352060408201527f312d31302d31742d352d35762d386c2d312d382d332d332d342d372d382d312d60608201527f3220322d3320332032203320312035712d3120322d3820356c2d31342032712d60808201527f3620302d31312d332d352d342d322d366c372d33712d342d332d362d382d332d60a08201527f3920392d32306c2d332d3134712d322d313120302d32316c2d3320332d34203260c08201527f2d312d32762d33712d3520322d362031762d336c342d3620352d313071372d3160e08201527f312031352d31366c2d352d32712d342d332d392d31312d372d31302d372d31376101008201527f20302d3320332d376c342d3520352d3133762d326c312d3371342d3520392d376101208201527f2031302d362032342d342039203220313620313420372031342035203238272f6101408201527f3e20203c706174682066696c6c3d27000000000000000000000000000000000061016082015250565b7f566f6365206a61206520646f6e6f20646520756d204e4654206465737361206360008201527f6f6c6563616f2e00000000000000000000000000000000000000000000000000602082015250565b615ed981613b48565b8114615ee457600080fd5b50565b615ef081613b5a565b8114615efb57600080fd5b50565b615f0781613b66565b8114615f1257600080fd5b50565b615f1e81613bb2565b8114615f2957600080fd5b5056fe4142434445464748494a4b4c4d4e4f505152535455565758595a6162636465666768696a6b6c6d6e6f707172737475767778797a303132333435363738392b2fa2646970667358221220c827710951e89a9f1e819e1f095f966d8216dcab35ce3147dd32107d5c47f8dc64736f6c634300080100334d6575207072696d6569726f20636f6e747261746f206465204e465421202d204173733a204a473130",
  "linkReferences": {},
  "deployedLinkReferences": {}
}